:020000040800F2
:1000000000000520DD020008E3020008E702000806
:1000100031030008350300087D03000800000000DC
:10002000000000000000000000000000C503000800
:10003000C903000800000000CD030008D9390008FA
:100040006D2E00086D2E00086D2E00086D2E000824
:100050006D2E00086D2E00086D2E00086D2E000814
:100060006D2E00086D2E00086D2E00086D2E000804
:100070006D2E00086D2E00086D2E00086D2E0008F4
:100080006D2E00086D2E00086D2E00086D2E0008E4
:100090006D2E00086D2E00086D2E00086D2E0008D4
:1000A0006D2E00086D2E00086D2E00086D2E0008C4
:1000B0006D2E00086D2E00086D2E00086D2E0008B4
:1000C0006D2E00086D2E00086D2E00086D2E0008A4
:1000D0006D2E00086D2E00086D2E00086D2E000894
:1000E0006D2E00086D2E00086D2E00086D2E000884
:1000F0006D2E00086D2E00086D2E00086D2E000874
:100100006D2E00086D2E00086D2E00086D2E000863
:100110006D2E00086D2E00086D2E00086D2E000853
:100120006D2E00086D2E00086D2E00086D2E000843
:100130006D2E00086D2E00086D2E00086D2E000833
:100140006D2E00086D2E00086D2E00086D2E000823
:100150006D2E00086D2E00086D2E00086D2E000813
:100160006D2E00086D2E00086D2E00086D2E000803
:100170006D2E00086D2E00086D2E00080000000096
:100180006D2E00086D2E00086D2E00086D2E0008E3
:100190006D2E00086D2E00086D2E00086D2E0008D3
:1001A0006D2E00086D2E00086D2E00086D2E0008C3
:1001B0006D2E00086D2E00086D2E00086D2E0008B3
:1001C0006D2E00086D2E000800B583B002F0CBFD47
:1001D000304B314A1360314A1360314B314A03E0EE
:1001E00011681960043304322F498B42F8D32A4B2B
:1001F0001A682E4B9A4200D0FEE7284B1A682C4B07
:100200009A42F9D1234B2B4A13602B4A13602B4B94
:1002100002E000221A600433294A9342F9D3254BA5
:100220001B6813B9244B1B6803B1FEE702F09FFD66
:10023000694601A802F074FD224B234CE41AA41075
:100240000025AC4214DC214B214CE41AA4100025FB
:10025000AC4213DC0099019803F084FB05461D4B6A
:100260001D4CE41AA410002C0EDC284602F035FDCB
:10027000144B53F8253098470135E2E7134B53F8F8
:10028000253098470135E3E7013C124B53F8243001
:100290009847E8E7BABADECA0000002080000020D4
:1002A00000000020685F00088400002078563412A7
:1002B00032547698840000205803002084000020E7
:1002C0005C030020E0030008E0030008E0030008EE
:1002D000E0030008E0030008E003000808B5FFF7AA
:1002E00073FF00BEFEE71EF0040F0CBFEFF30880A3
:1002F000EFF309807146374A10472DE9F04182B08B
:1003000004468846084B5E6B9F6B9D6A074802F067
:100310000FFDCDF800803B4632462946204602F0CC
:100320002BFD00BEFEE700BF00ED00E02C440008FE
:1003300000BEFEE71EF0040F0CBFEFF30880EFF3E2
:1003400009807146244A10472DE9F04182B00446E5
:100350008846084B5E6B9F6B9D6A074802F0E8FC7D
:10036000CDF800803B4632462946204602F004FD87
:1003700000BEFEE700ED00E03C4400081EF0040F64
:100380000CBFEFF30880EFF309807146134A104762
:100390002DE9F04182B004468846084B5E6B9F6BA6
:1003A0009D6A074802F0C4FCCDF800803B46324607
:1003B0002946204602F0E0FC00BEFEE700ED00E02A
:1003C0004844000800BEFEE700BEFEE700BEFEE7B0
:1003D00070470000FB020008490300089103000871
:1003E00010B5044602F01CF8064BA3FB0030800950
:1003F00000F080F8002221464FF0FF3000F03EF878
:10040000002010BDD34D621008B5032000F024F881
:100410000020FFF7E5FF01F037FC002008BD0000D9
:10042000024A136801331360704700BF8800002040
:10043000014B1868704700BF8800002010B582B0DB
:100440000190FFF7F5FF0446FFF7F2FF001B019B49
:100450009842F9D302B010BD0649CB6823F4E0639B
:100460001B041B0C000200F4E0600343024A1A4321
:10047000CA60704700ED00E00000FA0530B4144B8C
:10048000DB68C3F30223C3F10704042C28BF042450
:100490001D1D062D13D9033B012505FA04F4013C6B
:1004A0002140994005FA03F3013B1340194300280A
:1004B00007DB0901C9B2074B195430BC7047002350
:1004C000EAE700F00F000901C9B2034B1954F4E741
:1004D00000ED00E000E400E014ED00E0420900F06F
:1004E0001F00012303FA00F0014B43F8220070477C
:1004F00000E100E00138B0F1807F0AD2064B58607D
:10050000F021064A82F823100020986007221A6022
:1005100070470120704700BF10E000E000ED00E0F0
:10052000704708B5FFF7FCFF08BD0000002834D075
:1005300030B40346416A022280F8352004682268FC
:10054000174810405A689D682A43DD682A431D6990
:100550002A435D692A439D692A43DD692A431D6A4E
:100560002A430243042910D0226019684A6922F004
:100570000702586A024304280CD04A610020D8645C
:10058000012283F8352030BC7047D96A186B0143CB
:100590000A43E9E7986A0243EFE70120704700BF8A
:1005A0003F8010F00346002800F0418790F8352086
:1005B000D2B2022A00F03D8701680A6822F00102E7
:1005C0000A60016800220A6001684A6001688A6066
:1005D0000168CA6001680A610268212151610268EC
:1005E000C1498A4240F29880A1F589618A4231D09E
:1005F00001F580618A4274D0A1F568718A4272D097
:1006000001F580618A4270D0A1F589618A426ED07D
:1006100001F580618A426DD0A1F568718A426CD083
:1006200001F580618A426BD0A1F589618A426AD066
:1006300001F580618A4269D0A1F568718A4268D06B
:1006400001F580618A4202D04FF0807103E04FF4DF
:10065000802100E0A549A64AD1601A68A2498A42D1
:1006600040F2D081A1F589618A4200F0698101F5EB
:1006700080618A4200F0AB81A1F568718A4200F086
:10068000A88101F580618A4200F0A581A1F5896108
:100690008A4200F0A28101F580618A4200F0A081C7
:1006A000A1F568718A4200F09E8101F580618A425D
:1006B00000F09C81A1F589618A4200F09A8101F5E0
:1006C00080618A4200F09881A1F568718A4200F049
:1006D000968101F580618A4200F02F814FF0006120
:1006E0002FE18249B7E78149B5E78049B3E74FF485
:1006F0008071B0E74FF48071ADE74FF48071AAE7E5
:100700004FF48071A7E74FF48021A4E74FF48021D4
:10071000A1E74FF480219EE776498A4253D9A83950
:100720008A4231D001F580618A4231D0A1F56871E9
:100730008A422FD001F580618A422DD0A1F58961CE
:100740008A422BD001F580618A422AD0A1F56871D6
:100750008A4229D001F580618A4228D0A1F58961B9
:100760008A4227D001F580618A4226D0A1F56871BE
:100770008A4225D001F580618A4202D04FF0807113
:1007800003E04FF4802100E05849594A916064E742
:100790005649FAE75549F8E75449F6E74FF48071AE
:1007A000F3E74FF48071F0E74FF48071EDE74FF419
:1007B0008071EAE74FF48021E7E74FF48021E4E716
:1007C0004FF48021E1E74C498A4253D948398A42A3
:1007D00031D001F580618A4231D0A1F568718A4239
:1007E0002FD001F580618A422DD0A1F589618A421E
:1007F0002BD001F580618A422AD0A1F568718A4226
:1008000029D001F580618A4228D0A1F589618A4208
:1008100027D001F580618A4226D0A1F568718A420D
:1008200025D001F580618A4202D04FF0807103E04B
:100830004FF4802100E02D49304AD1600DE72B496B
:10084000FAE72A49F8E72949F6E74FF48071F3E718
:100850004FF48071F0E74FF48071EDE74FF4807151
:10086000EAE74FF48021E7E74FF48021E4E74FF413
:100870008021E1E722498A4231D001F580618A4234
:1008800040D0A1F568718A423ED001F580618A426C
:100890003CD0A1F589618A423AD001F580618A4253
:1008A00039D0A1F568718A4238D001F580618A4259
:1008B00037D0A1F589618A4236D001F580618A423C
:1008C00035D0A1F568718A4234D001F580618A4241
:1008D00002D04FF0807103E04FF4802100E0034923
:1008E000064A9160B9E600BF5864024004008000E7
:1008F00000640240B860024058600240006002405C
:1009000010600240C249EBE7C149E9E7C049E7E7A7
:100910004FF48071E4E74FF48071E1E74FF48071A8
:10092000DEE74FF48071DBE74FF48021D8E74FF426
:100930008021D5E74FF48021D2E74FF4001100E089
:100940002021B44AD1601A68B3498A4240F2D0816A
:10095000A1F589618A4200F0698101F580618A42CE
:1009600000F0AB81A1F568718A4200F0A88101F521
:1009700080618A4200F0A581A1F589618A4200F078
:10098000A28101F580618A4200F0A081A1F5687121
:100990008A4200F09E8101F580618A4200F09C81CC
:1009A000A1F589618A4200F09A8101F580618A424D
:1009B00000F09881A1F568718A4200F0968101F5F6
:1009C00080618A4200F020814FF000712FE12021E8
:1009D000B7E72021B5E72021B3E74FF40061B0E786
:1009E0004FF40061ADE74FF40061AAE74FF40061F6
:1009F000A7E74FF40011A4E74FF40011A1E74FF46B
:100A000000119EE785498A4253D9A8398A4231D0DC
:100A100001F580618A4231D0A1F568718A422FD0F8
:100A200001F580618A422DD0A1F589618A422BD0DF
:100A300001F580618A422AD0A1F568718A4229D0E5
:100A400001F580618A4228D0A1F589618A4227D0C8
:100A500001F580618A4226D0A1F568718A4225D0CD
:100A600001F580618A4202D04FF0006103E04FF44B
:100A7000001100E02021674A916064E72021FAE735
:100A80002021F8E72021F6E74FF40061F3E74FF467
:100A90000061F0E74FF40061EDE74FF40061EAE731
:100AA0004FF40011E7E74FF40011E4E74FF40011B1
:100AB000E1E75B498A4253D948398A4231D001F58E
:100AC00080618A4231D0A1F568718A422FD001F548
:100AD00080618A422DD0A1F589618A422BD001F52F
:100AE00080618A422AD0A1F568718A4229D001F535
:100AF00080618A4228D0A1F589618A4227D001F518
:100B000080618A4226D0A1F568718A4225D001F51C
:100B100080618A4202D04FF0006103E04FF400117F
:100B200000E020213F4AD1600DE72021FAE7202193
:100B3000F8E72021F6E74FF40061F3E74FF4006196
:100B4000F0E74FF40061EDE74FF40061EAE74FF49E
:100B50000011E7E74FF40011E4E74FF40011E1E77B
:100B600031498A4231D001F580618A4231D0A1F504
:100B700068718A422FD001F580618A422DD0A1F59B
:100B800089618A422BD001F580618A422AD0A1F581
:100B900068718A4229D001F580618A4228D0A1F586
:100BA00089618A4227D001F580618A4226D0A1F569
:100BB00068718A4225D001F580618A4202D04FF0E7
:100BC000006103E04FF4001100E02021154A91601C
:100BD000B9E62021FAE72021F8E72021F6E74FF4D3
:100BE0000061F3E74FF40061F0E74FF40061EDE7D7
:100BF0004FF40061EAE74FF40011E7E74FF400110A
:100C0000E4E74FF40011E1E74FF400210FE000BFEB
:100C1000040080000064024058640240B860024052
:100C20005860024000600240106002400821B34A50
:100C3000D1601A68B2498A4240F2CA81A1F589613D
:100C40008A4200F0678101F580618A4200F0A98143
:100C5000A1F568718A4200F0A68101F580618A429F
:100C600000F0A381A1F589618A4200F0A08101F51D
:100C700080618A4200F09D81A1F568718A4200F08E
:100C80009A8101F580618A4200F09781A1F589611E
:100C90008A4200F0948101F580618A4200F09281DD
:100CA000A1F568718A4200F0908101F580618A4265
:100CB00000F020814FF480012DE10821B7E70821E1
:100CC000B5E70821B3E74FF40071B0E74FF40071C6
:100CD000ADE74FF40071AAE74FF40071A7E74FF4B6
:100CE0000021A4E74FF40021A1E74FF400219EE783
:100CF00084498A4253D9A8398A4231D001F58061AA
:100D00008A4231D0A1F568718A422FD001F5806105
:100D10008A422DD0A1F589618A422BD001F58061EC
:100D20008A422AD0A1F568718A4229D001F58061F2
:100D30008A4228D0A1F589618A4227D001F58061D5
:100D40008A4226D0A1F568718A4225D001F58061DA
:100D50008A4202D04FF0007103E04FF4002100E01E
:100D60000821664A916064E70821FAE70821F8E75C
:100D70000821F6E74FF40071F3E74FF40071F0E754
:100D80004FF40071EDE74FF40071EAE74FF40021F2
:100D9000E7E74FF40021E4E74FF40021E1E75A4987
:100DA0008A4253D948398A4231D001F580618A425A
:100DB00031D0A1F568718A422FD001F580618A4255
:100DC0002DD0A1F589618A422BD001F580618A423C
:100DD0002AD0A1F568718A4229D001F580618A4242
:100DE00028D0A1F589618A4227D001F580618A4225
:100DF00026D0A1F568718A4225D001F580618A422A
:100E000002D04FF0007103E04FF4002100E0082110
:100E10003E4AD1600DE70821FAE70821F8E70821EA
:100E2000F6E74FF40071F3E74FF40071F0E74FF489
:100E30000071EDE74FF40071EAE74FF40021E7E7B6
:100E40004FF40021E4E74FF40021E1E730498A4202
:100E500031D001F580618A4231D0A1F568718A42B2
:100E60002FD001F580618A422DD0A1F589618A4297
:100E70002BD001F580618A422AD0A1F568718A429F
:100E800029D001F580618A4228D0A1F589618A4282
:100E900027D001F580618A4226D0A1F568718A4287
:100EA00025D001F580618A4202D04FF0007103E045
:100EB0004FF4002100E00821144A9160B9E60821AE
:100EC000FAE70821F8E70821F6E74FF40071F3E7A5
:100ED0004FF40071F0E74FF40071EDE74FF400714B
:100EE000EAE74FF40021E7E74FF40021E4E74FF48D
:100EF0000021E1E74FF480310DE000BF00640240C3
:100F000058640240B86002405860024000600240ED
:100F100010600240BC49BD4AD1601A68BC498A428F
:100F200040F28381A1F589618A4200F04A8101F58E
:100F300080618A4200F04F81A1F568718A4200F019
:100F40004C8101F580618A4200F04981A1F58961F7
:100F50008A4200F0468101F580618A4200F04481B6
:100F6000A1F568718A4200F0428101F580618A42F0
:100F700000F04081A1F589618A4200F03E8101F5CF
:100F800080618A4200F03C81A1F568718A4200F0DC
:100F9000498101F580618A4200F010814FF0806143
:100FA00010E19949B7E79849B5E79749B3E7402178
:100FB000B1E74021AFE74021ADE74021ABE74FF477
:100FC0008031A8E74FF48031A5E74FF48031A2E7E4
:100FD00090498A424FD9A8398A4231D001F58061BF
:100FE0008A4231D0A1F568718A422FD001F5806123
:100FF0008A422DD0A1F589618A422BD001F580610A
:101000008A4229D0A1F568718A4227D001F5806112
:101010008A4225D0A1F589618A4223D001F58061F9
:101020008A4222D0A1F568718A4221D001F58061FF
:101030008A4202D04FF4800103E04FF4803100E097
:101040007149724A916068E76F49FAE76E49F8E7BB
:101050006D49F6E74021F4E74021F2E74021F0E74F
:101060004021EEE74FF48031EBE74FF48031E8E7C1
:101070004FF48031E5E768498A424FD948398A42BE
:1010800031D001F580618A4231D0A1F568718A4280
:101090002FD001F580618A422DD0A1F589618A4265
:1010A0002BD001F580618A4229D0A1F568718A426E
:1010B00027D001F580618A4225D0A1F589618A4255
:1010C00023D001F580618A4222D0A1F568718A425D
:1010D00021D001F580618A4202D04FF4800103E003
:1010E0004FF4803100E048494C4AD16015E7464949
:1010F000FAE74549F8E74449F6E74021F4E740219B
:10110000F2E74021F0E74021EEE74FF48031EBE7D2
:101110004FF48031E8E74FF48031E5E740498A42F7
:1011200031D001F580618A4231D0A1F568718A42DF
:101130002FD001F580618A422DD0A1F589618A42C4
:101140002BD001F580618A4229D0A1F568718A42CD
:1011500027D001F580618A4225D0A1F589618A42B4
:1011600023D001F580618A4222D0A1F568718A42BC
:1011700021D001F580618A4202D04FF4800103E062
:101180004FF4803100E02049244A9160C5E61E49B1
:10119000FAE71D49F8E71C49F6E74021F4E740214A
:1011A000F2E74021F0E74021EEE74FF48031EBE732
:1011B0004FF48031E8E74FF48031E5E74FF48011D8
:1011C00000E01021114AD1600020D86483F8350076
:1011D00083F8340070471021F4E71021F2E7102162
:1011E000F0E74FF48061EDE74FF48061EAE74FF4F8
:1011F0008061E7E74FF48061E4E74FF48011E1E7B5
:101200004FF48011DEE700BF01008000006402405F
:1012100058640240B86002405860024000600240DA
:10122000106002404FF48011CCE783498A4253D9C1
:10123000A8398A4231D001F580618A4231D0A1F5C6
:1012400068718A422FD001F580618A422DD0A1F5C4
:1012500089618A422BD001F580618A422AD0A1F5AA
:1012600068718A4229D001F580618A4228D0A1F5AF
:1012700089618A4227D001F580618A4226D0A1F592
:1012800068718A4225D001F580618A4202D04FF010
:10129000806103E04FF4801100E01021674A916003
:1012A00092E71021FAE71021F8E71021F6E74FF452
:1012B0008061F3E74FF48061F0E74FF48061EDE780
:1012C0004FF48061EAE74FF48011E7E74FF48011B3
:1012D000E4E74FF48011E1E759498A4253D948398C
:1012E0008A4231D001F580618A4231D0A1F568711E
:1012F0008A422FD001F580618A422DD0A1F5896103
:101300008A422BD001F580618A422AD0A1F568710A
:101310008A4229D001F580618A4228D0A1F58961ED
:101320008A4227D001F580618A4226D0A1F56871F2
:101330008A4225D001F580618A4202D04FF0806157
:1013400003E04FF4801100E010213E4AD1603BE7FA
:101350001021FAE71021F8E71021F6E74FF4806139
:10136000F3E74FF48061F0E74FF48061EDE74FF46D
:101370008061EAE74FF48011E7E74FF48011E4E77A
:101380004FF48011E1E730498A4231D001F58061A4
:101390008A4231D0A1F568718A422FD001F580616F
:1013A0008A422DD0A1F589618A422BD001F5806156
:1013B0008A422AD0A1F568718A4229D001F580615C
:1013C0008A4228D0A1F589618A4227D001F580613F
:1013D0008A4226D0A1F568718A4225D001F5806144
:1013E0008A4202D04FF0806103E04FF4801100E0A8
:1013F0001021144A9160E7E61021FAE71021F8E77E
:101400001021F6E74FF48061F3E74FF48061F0E7D5
:101410004FF48061EDE74FF48061EAE74FF480110B
:10142000E7E74FF48011E4E74FF48011E1E7012092
:1014300070470120704700BFB8600240006402405E
:1014400058600240006002401060024070B40568BD
:10145000039C44EA03436B640368DA634368B3F5AF
:10146000403F03D00368D96070BC704701F07F46ED
:1014700001F47F0301F47F45CAB284687CB1012C7A
:1014800010D0022C11D0032C17D0360F190D2D0BB4
:10149000090241EA051141EA063141EA12110368E5
:1014A0009963E1E721F07F41F9E7DB0CAD0AD9024E
:1014B00041EA451141EAD201F1E7F60FDB0CED0AF2
:1014C000990241EA451141EAC63141EAD201E6E713
:1014D0007047000038B310B5044690F83930EBB1CE
:1014E000022384F839302268136823F4403361689A
:1014F0000B4313602268536B23F00703A1680B436F
:1015000053632268116C094B0B40E1680B43136471
:101510000020E063012384F8393010BD80F83830B2
:10152000FFF7D6FFDCE70120704700BF00C0FFFFD8
:1015300030B583B090F83840012C02D1022003B0BE
:1015400030BD0446012084F83800022084F83900B8
:101550002568286820F00100286006980090204641
:10156000FFF774FF2268136843F001031360002043
:10157000E5E770B504460D4603681B6813F0010FDC
:1015800011D12368DB6913F0200F3CD123680222BC
:101590009A60236810229A60012384F83930002071
:1015A00084F8380070BDFEF743FF06462268536892
:1015B00013F0020FE5D15168536803F00103C1F342
:1015C00040110B4313D1B5F1FF3FEFD025B1FEF72A
:1015D0002FFF801B8542E9D2002384F83830E36B6B
:1015E00043F02003E363032084F8390070BD202317
:1015F0009360236801209860042384F83930002325
:1016000084F8383070BDFEF713FF064623685A6829
:1016100012F0100FBAD15A6812F0080F10D1B5F1BC
:10162000FF3FF3D025B1FEF703FF801B8542EDD2CB
:10163000E36B43F02003E363032084F8390070BDBB
:1016400008229A60042384F83930012070BD00001C
:1016500090F83830012B00F08280F0B4012380F83C
:101660003830022380F83930002940D10668736A87
:101670003C4D1D4000EB0113DB69A3F10902012A77
:1016800020D98A1C12018418825843EA02436268F6
:1016900043EA02631D4375620468A269324B13403A
:1016A00000EB011295692B43A361D369093B012B20
:1016B00014D9012380F83930002380F838301846D7
:1016C000F0BC70478A1C12018718845843EA04440E
:1016D0007A6802F07F4222431543DCE7023100EBD7
:1016E00001114B6823F07F4302689362E1E70668CB
:1016F000F3691C4D1D4000EB0113DB69A3F10902E6
:10170000012A20D98A1C12018418825843EA024314
:10171000626843EA02631D43F56104682269124B63
:10172000134000EB011295692B432361D369093BF8
:10173000012BBED8023100EB01114B6823F07F432F
:1017400002681362B5E78A1C12018718845843EABD
:1017500004447A6802F07F4222431543DCE702200A
:10176000704700BFF0FFFC0000C0FFFFF0B583B082
:10177000002437E0092600E0002606FA0EF6324380
:1017800002336C4E46F823206B4B1A68EB4302EA97
:1017900003064F6817F4803F01D045EA0206664A07
:1017A0001660526803EA02064F6817F4003F01D042
:1017B00045EA0206604A5660926803EA02064F68EC
:1017C00017F4801F01D045EA02065B4A9660D26892
:1017D00013404E6816F4001F01D045EA0203564A32
:1017E000D36001340F2C00F2A3800123A3400A68C8
:1017F00003EA0205AB42F4D14A68122A18BF022A52
:1018000012D14FEAD40E0EF1080E50F82E2004F03B
:101810000706B6000F27B74022EA07020F6907FA4A
:1018200006F6324340F82E2006684FEA440E0322A3
:1018300002FA0EF2D24316404F6807F0030707FA88
:101840000EF73E4306604E68771E112E18BF012F1B
:1018500001D9122E0FD186681640CF6807FA0EF70D
:101860003E438660466826EA03034E68C6F30016C8
:10187000A64033434360C3681A408B6803FA0EF3F3
:101880001A43C2604B6813F0805FAAD02B4B5A6C8E
:1018900042F480425A645B6C03F480430193019BE1
:1018A000A3089E1C234A52F8262004F003064FEAA0
:1018B000860E0F2606FA0EF622EA0602204FB842DE
:1018C0003FF45AAF1F4EB04222D006F58066B042B8
:1018D00020D006F58066B0421ED006F58066B04284
:1018E0001CD006F58066B0421AD006F58066B0427C
:1018F00018D006F58066B04216D006F58066B04274
:1019000014D006F58066B0423FF434AF0A2634E7BF
:10191000012632E7022630E703262EE704262CE7CD
:1019200005262AE7062628E7072626E7082624E7CD
:1019300003B0F0BD00380140003C014000380240D7
:10194000000002400004024012B90904816170479E
:1019500081617047F0B54D680468E368C3F30B43D9
:101960001D44D2011444D4F8883003F47043C4F801
:101970008830066894190B68F668C6F30B46334442
:10198000013343EA0543C4F88830CD680468E3684E
:10199000C3F30A031D441444D4F88C3003F4704399
:1019A000C4F88C30066894198B68F668C6F30A068A
:1019B0003344013343EA0543C4F88C3003681344CD
:1019C000D3F8944024F00704C3F894400368134408
:1019D0000C69C3F8944091F831E091F832708E6947
:1019E00005681544D5F89C300024C5F89C4005686E
:1019F000154491F8303043EA0E2343EA074343EAA3
:101A00000663C5F89C3003681344D3F8985025F05A
:101A1000FF05C3F89850036813444D69C3F8985004
:101A200003681344D3F8A0602C4D3540C3F8A05090
:101A300003681344CD690E6A3543C3F8A0500368A8
:101A40001344D3F8AC50C3F8AC40036813444C6A59
:101A5000C3F8AC400B696BB1012B39D0022B18BF16
:101A6000042B37D0032B37D0072B01D0012602E0FF
:101A7000022600E0042604681444D4F8B03003F0D1
:101A8000E023C4F8B030046814448D6A05FB06F501
:101A90004B680F68DB1B03FB06F3033343EA054384
:101AA000C4F8B03003681344D3F8B4500C4C2C4045
:101AB000C3F8B44003681344C96AC3F8B410036898
:101AC0001A44D2F8843043F00103C2F88430F0BDE8
:101AD0000326D0E70226CEE70226CCE7F8F8FFFF80
:101AE00000F8FFFF70470000002877D038B50446A3
:101AF00090F8A130002B6CD0022384F8A13022682A
:101B0000936923F07043936121688A696368A068D0
:101B10000343E06803432069034313438B61216857
:101B20008A682F4B1A408A60656920688268A169BB
:101B300041EA05410A4382602168CA681A40CA60C6
:101B4000E5692068C268216A41EA05410A43C2602A
:101B500021680A691A400A61656A20680269A16AF7
:101B600041EA05410A43026121684A6913404B6119
:101B7000E06A21684B69226B42EA004213434B61E1
:101B800094F8350094F836301B042168CA6A02F0D4
:101B90007F42CA622168CA6A43EA002394F834008B
:101BA00003431343CB622268536B43F00403536334
:101BB0002268536B43F0020353632268936943F036
:101BC000010393610020C4F8A400012384F8A1302C
:101BD00038BD80F8A030FFF785FF8DE70120704702
:101BE00000F800F090F8A030012B01D102207047DE
:101BF0002DE9F04196460F4606464FF0010880F861
:101C0000A080022380F8A130342404FB020438347D
:101C10000D460FCD0FC40FCD0FC40FCD0FC42B68D1
:101C20002360724639463046FFF794FE3368C3F8A6
:101C3000248086F8A180002086F8A000BDE8F0810D
:101C400038B590F8A030012B01D1022038BD0446F0
:101C5000012580F8A050022380F8A130342303FB33
:101C600002F303F138002344D96421182046FFF71A
:101C700071FE23685D6284F8A150002084F8A00002
:101C800038BD90F8A10070477047000010B582B0D1
:101C90001B4B1A6C42F080521A641B6C03F0805389
:101CA0000193019B174A136843F480331360FEF7D6
:101CB000BFFB0446134B5B6813F4803F08D1FEF76B
:101CC000B7FB001BB0F57A7FF4D9032002B010BD3A
:101CD0000C4A136843F400331360FEF7A9FB044673
:101CE000084B5B6813F4003F07D1FEF7A1FB001B14
:101CF000B0F57A7FF4D90320E8E70020E6E700BFDB
:101D0000003802400070004030B583B004460368DC
:101D100013F0010F37D0B14B9B6803F00C03042B79
:101D200028D0AE4B9B6803F00C03082B1DD0AB4BA7
:101D30001A6822F480321A601A6822F480221A602B
:101D40001A6822F480321A60FEF772FB0546A34B34
:101D50001B6813F4003F3FD0FEF76AFB401B41F2C3
:101D600088339842F3D90320FBE19C4B5B6813F462
:101D7000800FDCD0994B1B6813F4003F03D06368DD
:101D8000002B00F0EB81236813F0020F00F08E802F
:101D9000924B9B6813F00C0F70D0904B9B6803F034
:101DA0000C03082B65D0E368002B00F0A9808B4A58
:101DB000136843F001031360FEF73AFB0546874BB7
:101DC0001B6813F0020F40F08C80FEF731FB401BC4
:101DD0006428F4D90320C4E1804A136823F48033D3
:101DE00013606368B3F5803F1ED0B3F5A02F25D0F4
:101DF0007A4B1A6822F480221A601A6822F4803220
:101E00001A60636823B3FEF713FB0546734B1B6828
:101E100013F4003FB7D1FEF70BFB401B41F28833B0
:101E20009842F3D903209CE11346126822F48022E1
:101E30001A601A6842F480321A60E2E7674B1A6847
:101E400042F480221A601A6842F480321A60D8E79D
:101E5000FEF7EEFA0546614B1B6813F4003F92D083
:101E6000FEF7E6FA401B41F288339842F3D903208B
:101E700077E15A4B5B6813F4800F94D1574B1B6882
:101E800013F0020F04D0E368012B01D0012068E1B8
:101E90005248036823F0F8032169F82292FAA2F26B
:101EA000B2FA82F201FA02F213430360236813F0DC
:101EB000080F4DD06369002B36D0484A536F43F06A
:101EC00001035367FEF7B4FA0546444B5B6F13F00A
:101ED000020F3DD1FEF7ACFA401B6428F5D9032070
:101EE0003FE13E48036823F0F8032169F82292FAA3
:101EF000A2F2B2FA82F201FA02F213430360D5E7CA
:101F0000364A136823F001031360FEF791FA054681
:101F1000324B1B6813F0020FC8D0FEF789FA401B42
:101F20006428F5D903201CE12C4A536F23F00103E8
:101F30005367FEF77DFA0546284B5B6F13F0020FDF
:101F400006D0FEF775FA401B6428F5D9032008E196
:101F5000236813F0040F22D1A369002B00F0008145
:101F60001E4A926802F00C02082A00F0FC80022B44
:101F700000F0A380194A136823F080731360FEF702
:101F800057FA0446154B1B6813F0007F00F0E480FD
:101F9000FEF74EFA001B6428F4D90320E1E00F4B52
:101FA0001A6C42F080521A641B6C03F08053019348
:101FB000019B0B4A136843F480731360FEF738FAF1
:101FC0000546074B1B6813F4807F0BD1FEF730FAF0
:101FD000401B6428F5D90320C3E000BF003802404D
:101FE00000700040614B1A6F22F001021A671A6FED
:101FF00022F004021A671A6F22F001021A67FEF734
:1020000017FA0546594B1B6F13F0020F08D0FEF765
:102010000FFA401B41F288339842F3D90320A0E025
:10202000524A136F23F001031367A368012B1ED0DC
:10203000052B26D04D4B1A6F22F004021A671A6F37
:1020400022F001021A67A3682BB3FEF7F1F90546E7
:10205000464B1B6F13F0020F7FF47EAFFEF7E8F9DB
:10206000401B41F288339842F2D9032079E01346AD
:10207000126F22F004021A671A6F42F001021A6707
:10208000E1E73A4B1A6F42F004021A671A6F42F006
:1020900001021A67D7E7FEF7CBF90546334B1B6FF2
:1020A00013F0020F3FF458AFFEF7C2F9401B41F2A4
:1020B00088339842F2D9032053E02C4A136823F066
:1020C00080731360FEF7B4F90546284B1B6813F0C4
:1020D000007F06D0FEF7ACF9401B6428F5D9032039
:1020E0003FE0236A616A47F6C07292FAA2F2B2FA3E
:1020F00082F201FA02F21343A26A5208013A4FF443
:10210000403191FAA1F1B1FA81F18A401343E269B9
:102110001343E16A4FF0706292FAA2F2B2FA82F2CD
:1021200001FA02F2134343F00053104A536013685C
:1021300043F080731360FEF77BF904460B4B1B687A
:1021400013F0007F06D1FEF773F9001B6428F5D960
:10215000032006E0002004E0002002E0012000E06F
:10216000002003B030BD0120FBE700BF0038024073
:1021700070B504460D46834B1B6803F00F038B427A
:1021800072D2804A136823F00F030B431360136865
:1021900003F00F03994201D0012070BD036813F0D2
:1021A000020F07D0A2F58062936823F0F0038168E4
:1021B0000B439360236813F0010F00F0C380636842
:1021C000012B24D0022B29D06F4A126812F0020F83
:1021D00000F0D4806C498A6822F0030213438B60BC
:1021E000FEF726F905466368012B1ED0022B2CD082
:1021F000654B9B6813F00C0F00F0A480FEF718F9F4
:10220000401B41F288339842F2D9032070BD5E4AE8
:10221000126812F4003FDDD1012070BD5A4A1268E5
:1022200012F0007FD6D1012070BD574B9B6803F0A0
:102230000C03042B00F08680FEF7FAF8401B41F2F5
:1022400088339842F1D9032070BD4F4B9B6803F04F
:102250000C03082B76D0FEF7EBF8401B41F28833D5
:102260009842F2D9032070BD036813F0020F06D024
:10227000454A936823F0F00381680B439360236819
:1022800013F0010F51D06368012B22D0022B27D00D
:102290003D4A126812F0020F72D03B498A6822F060
:1022A000030213438B60FEF7C3F806466368012BF5
:1022B0001DD0022B2AD0344B9B6813F00C0F34D066
:1022C000FEF7B6F8801B41F288339842F3D9032019
:1022D00070BD2D4A126812F4003FDED1012070BD9E
:1022E000294A126812F0007FD7D1012070BD264B19
:1022F0009B6803F00C03042B17D0FEF799F8801BA2
:1023000041F288339842F2D9032070BD1E4B9B687E
:1023100003F00C03082B08D0FEF78AF8801B41F26B
:1023200088339842F2D9032070BD164A136823F00F
:102330000F032B431360136803F00F039D4201D07A
:10234000012070BD236813F0040F06D00E4A936875
:1023500023F4E053E1680B439360236813F0080F04
:1023600007D0094A936823F46043216943EAC10313
:1023700093600020FEF734F8002070BD012070BD8E
:10238000012070BD003C024000380240214B9B6898
:1023900003F00C03042B3AD0082B01D01E487047E1
:1023A0001C4B586800F03F005B6813F4800F1ED090
:1023B0001A4AB2FBF0F2174B586847F6C073184040
:1023C00093FAA3F3B3FA83F3D84000FB02F0114B66
:1023D0005B6803F440334FF4403292FAA2F2B2FA4F
:1023E00082F2D34001335B00B0FBF3F070470A4A3E
:1023F000B2FBF0F2074B586847F6C073184093FAE7
:10240000A3F3B3FA83F3D84000FB02F0DFE70348FD
:10241000704700BF003802400024F40040787D017E
:1024200008B5FFF7B3FF084B9B6803F0F003F022F9
:1024300092FAA2F2B2FA82F2D340044AD35CD840B4
:10244000034B186008BD00BF00380240004300087D
:102450000C000020F0B583B00446036813F0010FB0
:102460000CD0B34B9A6822F400029A609A68416BD0
:102470000A439A60436BC3B1002500E0002523683E
:1024800013F4002F15D0AA4AD2F88C3023F440134D
:10249000E16B0B43C2F88C30E36BB3F5801F06D0C1
:1024A000002B00F02281002604E00125E7E701254A
:1024B000F6E70026236813F4801F0FD09C4AD2F859
:1024C0008C3023F44003216C0B43C2F88C30236C16
:1024D000B3F5800F00F00B8103B90126236813F0D8
:1024E000807F00D0012513F0200F07D0904B1B6F89
:1024F000226B534013F4407F40F0FB80236813F0BD
:10250000100F0CD08A4BD3F88C2022F08072C3F8C5
:102510008C20D3F88C20A16B0A43C3F88C2023684D
:1025200013F4804F08D0824AD2F8903023F440331D
:10253000616E0B43C2F89030236813F4004F08D04B
:102540007B4AD2F8903023F44023A16E0B43C2F8AB
:102550009030236813F4803F08D0754AD2F8903049
:1025600023F44013E16E0B43C2F89030236813F458
:10257000003F08D06E4AD2F8903023F44003216F18
:102580000B43C2F89030236813F0400F08D0684A1C
:10259000D2F8903023F00303616C0B43C2F8903003
:1025A000236813F0800F08D0614AD2F8903023F0EE
:1025B0000C03A16C0B43C2F89030236813F4807FA6
:1025C00008D05B4AD2F8903023F03003E16C0B4323
:1025D000C2F89030236813F4007F08D0544AD2F830
:1025E000903023F0C003216D0B43C2F89030236874
:1025F00013F4806F08D04E4AD2F8903023F4407321
:10260000616D0B43C2F89030236813F4006F08D05B
:10261000474AD2F8903023F44063A16D0B43C2F8CF
:102620009030236813F4805F08D0414AD2F890308C
:1026300023F44053E16D0B43C2F89030236813F448
:10264000005F08D03A4AD2F8903023F44043216E1C
:102650000B43C2F89030236813F4800F08D0344A3B
:10266000D2F8903023F08063A16F0B43C2F8903012
:10267000236813F4001F0DD02D4AD2F8903023F0B8
:102680000063E16F0B43C2F89030E36FB3F1006F6A
:1026900000F08F80236813F0080F00D0012613F498
:1026A000802F08D0224AD2F8903023F04073616F17
:1026B0000B43C2F89030236813F4000F09D01C4A72
:1026C000D2F8903023F08053D4F880100B43C2F836
:1026D0009030002D6FD12368B3F1007F6BD0002EB6
:1026E00040F02E81002003B0F0BD0126E2E6012576
:1026F000F2E60F4B1A6C42F080521A641B6C03F026
:1027000080530193019B0B4A136843F48073136059
:10271000FDF78EFE0746074B1B6813F4807F0BD135
:10272000FDF786FEC01B6428F5D90320DBE700BF58
:1027300000380240007000408B4B196F21F440704C
:102740001A6F42F480321A671A6F22F480321A67C5
:10275000186711F0020F12D1236B03F44072B2F527
:10276000407F1DD0804A936823F4F81393607E491C
:102770000B6F226BC2F30B0213430B67BEE6FDF730
:1027800057FE0746784B1B6F13F0020FE4D1FDF79D
:102790004FFEC01B41F288339842F3D90320A2E7D1
:1027A0007148826822F4F812704919400A43826025
:1027B000DDE701266EE76C4A136823F0806313603F
:1027C000FDF736FE0546684B1B6813F0006F06D018
:1027D000FDF72EFE401B6428F5D9032083E723680C
:1027E00013F0010F23D0636B0BBB5F48D0F884302C
:1027F00003F440334FF4403292FAA2F2B2FA82F27A
:10280000D340D0F8842002F070624FF0706191FAEA
:10281000A1F1B1FA81F1CA4061681B0443EA811356
:1028200043EA0263A26843EA0273C0F88430236873
:1028300013F4002F03D0E26BB2F5801F54D013F4D1
:10284000801F03D0236CB3F5800F4DD0236813F0A5
:10285000807F22D04448D0F8843003F070634FF07A
:10286000706191FAA1F1B1FA81F123FA01F1D0F886
:10287000842002F0E0424FF0E04393FAA3F3B3FA6E
:1028800083F3DA40656823691B0443EA851343EA4E
:10289000016343EA0273C0F88430236813F0007FB9
:1028A0000DD0626823691B0443EA8213E26843EA9D
:1028B0000263A26843EA02732B4AC2F884302A4AB0
:1028C000136843F080631360FDF7B2FD0546264BA5
:1028D0001B6813F0006F7FF402AFFDF7A9FD401BEA
:1028E0006428F4D90320FEE61F4AD2F8843003F4AA
:1028F00040334FF4403191FAA1F1B1FA81F1CB406C
:10290000D2F8841001F0E0414FF0E04090FAA0F0DE
:10291000B0FA80F0C14060681B0443EA8013E068AD
:1029200043EA006343EA0173C2F88430D2F88C3082
:1029300023F01F03616A01390B43C2F88C3085E72D
:10294000094A136823F080531360FDF771FD0546B3
:10295000054B1B6813F0005F0AD0FDF769FD401BB3
:102960006428F5D90320BEE600380240FFFCFF0FC3
:10297000236813F4002F01D0E26B22B113F4801FFF
:102980002DD0236C5BBB4F4AD2F8883003F4403320
:102990004FF4403191FAA1F1B1FA81F1CB40D2F874
:1029A000881001F0E0414FF0E04090FAA0F0B0FA5A
:1029B00080F0C14060691B0443EA8013A06943EAC8
:1029C000006343EA0173C2F88830D2F88C3023F4F4
:1029D000F853A16A013943EA0123C2F88C30236815
:1029E00013F4001F03D0E36FB3F1006F42D02368EC
:1029F00013F0080F2AD0334AD2F8883003F07063FE
:102A00004FF0706191FAA1F1B1FA81F123FA01F16D
:102A1000D2F8883003F440334FF4403090FAA0F0FD
:102A2000B0FA80F0C34060691B0443EA801343EAB4
:102A30000163E16943EA0173C2F88830D2F88C304F
:102A400023F44033E16A0B43C2F88C301D4A13680B
:102A500043F080531360FDF7EBFC0446194B1B68F1
:102A600013F0005F2BD1FDF7E3FC001B6428F5D9C0
:102A7000032038E61348D0F8883003F070634FF035
:102A8000706191FAA1F1B1FA81F123FA01F1D0F864
:102A9000883003F0E0434FF0E04292FAA2F2B2FA3B
:102AA00082F223FA02F26569236A1B0443EA851362
:102AB00043EA016343EA0273C0F8883097E70020D5
:102AC00011E600BF003802407047D8B138B504465F
:102AD0000D4690F82C3083B1022384F82C30211D50
:102AE000206800F043F862682946206800F078F812
:102AF000012384F82C30002038BD80F82D30FFF7FA
:102B0000E3FFE9E70120704738B590F82C30DBB2DD
:102B1000022B01D1022038BD0D460446022380F865
:102B20002C30006800F0A5F82B68022B04D001239C
:102B300084F82C30002038BD052384F82C30002088
:102B400038BD90F82C30DBB2022B01D10220704747
:102B500010B50446022380F82C30006800F0B7F866
:102B6000012384F82C30002010BD000030B40B6825
:102B7000012B18D00368194A1A404B688C6823430C
:102B8000CC6823430C6923434C6923438C6923435A
:102B9000CC6923430C6A2343496A0B431343036004
:102BA000002030BC704705680C4B1D40CA690C6A98
:102BB00022434C6A22432A4344681C404B688D6878
:102BC0002B43CD682B430D692B434D692B438969FA
:102BD0000B43234302604360E2E700BF0080FFFF36
:102BE00030B4012A21D0826802F070420B68013BA8
:102BF0004C68013C43EA04138C68013C43EA04231B
:102C0000CC68013C43EA04330C69013C43EA0443C9
:102C10004C69013C43EA04538969013943EA016381
:102C200013438360002030BC7047C26802F07042DA
:102C30000B68013B4C68013C43EA04138C68013C7F
:102C400043EA04230C69013C43EA04438C69013CD8
:102C500043EA04631343846804F07044CA68551E51
:102C60004A69013A120542EA05322243C360826092
:102C7000D8E770B582B004461546002301930B686F
:102C80004A6813438A68013A43EA4213CA6843EA2E
:102C900042230193019B0361FDF7CAFBA36913F073
:102CA000200F10D00646B5F1FF3F0ED015B9032016
:102CB00002B070BDFDF7BCFB801B854201D2032032
:102CC000F6E70120F4E70020F2E70120F0E743698E
:102CD00043EA4101416100207047FEE708B5034621
:102CE0000C4A12685AB10B4A1068033323F00303ED
:102CF0000344094A934206D8064A136008BD0749AF
:102D0000044A1160EFE700F06DFE0C2303604FF002
:102D1000FF3008BD8C00002000FC04205C03002074
:102D200001230360014B0B60704700BF04000020CB
:102D30000FB400B583B004AB53F8042B019380218A
:102D4000064800F08DFE002803DD0146034800F030
:102D500007F803B05DF804EB04B07047940000205E
:102D60004FF0FF30704708B500F082F808BD08B595
:102D700000F09EF808BD0000F8B504460D46174661
:102D80001E462748FFF7D4FF21682648FFF7D0FFEB
:102D900061682548FFF7CCFFA1682448FFF7C8FF0A
:102DA000E1682348FFF7C4FF21692248FFF7C0FF0D
:102DB00061692148FFF7BCFFA1692048FFF7B8FF10
:102DC000E1691F48FFF7B4FF1E48FFF7B1FF29462E
:102DD0001D48FFF7ADFF1D4CE16A1D48FFF7A8FF36
:102DE000216B1C48FFF7A4FFE16B1B48FFF7A0FF16
:102DF00015F0800F0AD115F4004F0CD11748FFF7DA
:102E000097FF06991648FFF793FFF8BD3946154816
:102E1000FFF78EFFEFE731461348FFF789FFEDE735
:102E200010430008204300083043000840430008D6
:102E300050430008604300087043000880430008C6
:102E400090430008A0430008AC43000800ED00E0F8
:102E5000BC430008CC430008DC4300080C440008D5
:102E600014440008EC430008FC430008FEE700009F
:102E70000B4B1A6842F001021A6000219960186831
:102E8000084A02401A60084A5A601A6822F48022EE
:102E90001A60D9604FF00062044B9A60704700BF1F
:102EA00000380240FFFFF6FE1030002400ED00E085
:102EB000224B9B6803F00C03042B14D0082B16D074
:102EC0001BB11F4A1F4B1A6002E01D4A1D4B1A60BE
:102ED0001A4B9B68C3F303131B4AD15C194A13684E
:102EE000CB4013607047194A164B1A60F0E7134B3A
:102EF0005A685B6803F03F0312F4800F13D0134A43
:102F0000B2FBF3F20D4B5B68C3F3881303FB02F3D0
:102F10000A4A5268C2F3014201325200B3FBF2F393
:102F2000084A1360D4E7064AB2FBF3F2034B5B682E
:102F3000C3F3881303FB02F3EAE700BF0038024043
:102F40000024F4000C0000205844000840787D0163
:102F5000F0B583B004460D4616461F464FF4403286
:102F6000174B5A60174B1B683421174A01FB032388
:102F70009B6C022B0CD00022114B9A601048089BCE
:102F8000C360124B0360FEF7A5FA28B103B0F0BD91
:102F900002220B4B9A60F1E721460948FEF758FBE5
:102FA0000028F3D1009733462A4609990448FEF7D2
:102FB000BFFA0028EAD10A210148FEF7DAFAE5E76C
:102FC00030010020140100207001002000B00240F8
:102FD000034B1B683421034A01FB0323186E70471F
:102FE0001401002070010020034B1B683421034AA8
:102FF00001FB0323586E704714010020700100206C
:1030000070B58EB005460E4600240194FFF7E0FF30
:1030100002900394FFF7E8FF049005940A96FF23BB
:10302000069307948DF834408DF835408DF836407E
:103030004FF4C063089307230993FFF7C9FF0B9070
:10304000FFF7D2FF0C902A4601A90A48FEF7CAFDF5
:10305000094A680041198B0013444FF0FF31596051
:1030600006499960284483004FF07F41D1500EB04B
:1030700070BD00BF7001002018010020100000206A
:10308000014B1860704700BF1401002008B50246CC
:103090000148FEF7D5FD08BD70010020034B1B68F9
:1030A00003EB43039A00024B985070471401002031
:1030B00018010020044B1B6803EB43039A00034BE9
:1030C00013445860704700BF14010020180100200D
:1030D000044B1B6803EB43039A00034B13449860B3
:1030E000704700BF1401002018010020F0B583B024
:1030F00007460B4B1C6834230A4A03FB0423DD6D8F
:10310000FFF766FF0646FFF76FFF01970023009366
:103110000346324629462046FFF71AFF03B0F0BDAA
:103120001401002070010020F8B506460C46154633
:10313000104B1B683422104902FB0312926C022AC6
:103140000BD034210C4A01FB0323DF6DFFF740FF56
:1031500000FB046047F82050F8BD3421064A01FB0B
:103160000323DF6DFFF734FF00FB0460ADB227F8E7
:103170001050F8BD14010020700100202DE9F04F1F
:1031800083B081460F460092344B1B6803EB430328
:103190009A00334B13449B68DA8801929D8805F1AD
:1031A000070B4FEAEB0B4FEACB085FFA88F8EBB25C
:1031B000A8EB03085FFA88F84FF0000A34E0009AA1
:1031C000D65C002414E00099CB5C567846EA0326CE
:1031D000F7E7224B1B6803EB43039A00204B134491
:1031E00009EB04005A68394680B2FFF79DFF0134AD
:1031F000AC4215D22B1B4344013B012202FA03F3DC
:103200001E42E6D0154B1B6803EB43039A0009EB03
:103210000400134B9A58394680B2FFF785FFE6E762
:103220000137BFB20AF1010A019B9A4512D20BFB8A
:103230000AF3009A1A44BBF1010FC0D0BBF1020F90
:10324000C1D00099CB5C5678360246EA03469378A3
:103250001E43B6E703B0BDE8F08F00BF14010020A5
:103260001801002038B50B4B1B6803EB43039C008F
:10327000094B23449B681C68A2F12005DA8802FBF5
:1032800005F29B880733DB1003FB0242FFF776FF52
:1032900038BD00BF14010020180100202DE9F041C5
:1032A00005460F46164698461346002401E00134B1
:1032B00013465A1C1B78002BF9D1FFF789FE2A4BC5
:1032C0001B6803EB43039A00284B13449B689A88BE
:1032D000B0FBF2F0B8F1010F07D0B8F1020F0CD03B
:1032E0002BB2002B10DD002423E0031B03FB02F3B1
:1032F000C3F34F031D44ADB2F2E7031B13FB02F30C
:103300009BB25D1BADB2EBE70125ECE742463946C7
:103310002846FFF7A7FF144B1B6803EB43039A00F3
:10332000124B13449B689B881D44ADB20136013497
:10333000A4B296F80080FFF74BFE0B4B1B6803EB23
:1033400043039A00094B13449B689B8803FB1400BA
:1033500080B218F1000218BF0122984238BF002243
:10336000002AD3D1BDE8F08114010020180100200B
:1033700008B5094B1A68936943F001039361012270
:103380004FF480510548FEF7DFFA01220821044876
:10339000FEF7DAFA08BD00BF7001002000200240ED
:1033A00000280240F0B58FB04A4B5A6C42F0806260
:1033B0005A645A6C02F080620092009A1A6B42F4CE
:1033C00000021A631A6B02F400020192019A1A6B4E
:1033D00042F010021A631A6B02F010020292029A73
:1033E0001A6B42F040021A631A6B02F04002039219
:1033F000039A1A6B42F480721A631A6B02F4807299
:103400000492049A1A6B42F400721A631A6B02F463
:1034100000720592059A1A6B42F480621A631A6B65
:1034200002F480620692069A1A6B42F480721A6362
:103430001A6B02F480720792079A1A6B42F4806248
:103440001A631B6B03F480630893089B1023099392
:1034500002240A9400230B930C940E250D9509A9C0
:103460001D48FEF783F94FF4805709970A94092302
:103470000D9309A91948FEF779F94FF467430993A9
:103480000A940D95164E09A93046FEF76FF94EF6CF
:10349000FF7309930A940D9509A91248FEF766F97E
:1034A000F72309930A940D950F4C09A92046FEF7BE
:1034B0005DF9099701250A9509A93046FEF756F9E5
:1034C000082309930A9509A92046FEF74FF90FB082
:1034D000F0BD00BF0038024000100240001802405A
:1034E00000200240002402400028024008B506489F
:1034F00008230360C02343610523C3614FF4803375
:10350000C362FEF7A7FF08BD1802002010B5254CC6
:10351000282363610923A3613523E3610B2323621D
:1035200040F21B13A36240F21523636240F21D13A5
:10353000236340F23523E36200212046FFF7D6FFE4
:103540004FF4F07323664FF488736366002384F8A6
:10355000343084F8353084F836306360A360E3603B
:103560002361114B23602046FEF78BFBA0B10D4871
:10357000FEF7BAFA01224FF480510C48FEF7E4F945
:10358000012208210A48FEF7DFF900F021F9094875
:10359000FFF79EFD002010BD00212046FFF702FF2F
:1035A000E5E700BF700100200068014000200240F4
:1035B00000280240100000202DE9F04383B081462E
:1035C0004FF00008CDF80480204C0126266010271B
:1035D0006760A660C4F80C801D4D4FF6FF7221464F
:1035E0002846FFF791FA3046FCF728FF02232360B4
:1035F0006760A660C4F80C804FF6FF72214628462B
:10360000FFF782FA0323236067600823A360C4F8EE
:103610000C804FF6FF7221462846FFF775FA4FF4EB
:1036200008730193042323606760A660019BE36035
:103630004FF6FF7221462846FFF766FA49462846AC
:10364000FFF77FFA03B0BDE8F08300BF9C020020C3
:103650001803002070B58EB00646544B9A6B42F0AA
:1036600001029A639A6B02F001020192019A1A6BAD
:1036700042F480021A631A6B02F480020292029AE8
:103680001A6B42F004021A631A6B02F004020392EE
:10369000039A1A6B42F008021A631A6B02F00802CE
:1036A0000492049A1A6B42F010021A631A6B02F029
:1036B00010020592059A1A6B42F020021A631A6BE7
:1036C00002F020020692069A1A6B42F040021A6338
:1036D0001A6B02F040020792079A1A6B42F08002BE
:1036E0001A631B6B03F080030893089B02230A9361
:1036F00001220B920C930C230D930EAC082344F87B
:10370000143D21462A48FEF731F84CF20B73099319
:1037100021462848FEF72AF84FF68373099321467D
:103720002548FEF723F84FF63F0309932146234827
:10373000FEF71CF848F23313099321462048FEF7A0
:1037400015F82823099321461E48FEF70FF81E4C52
:10375000002565608023A3604FF40073E3604FF49D
:10376000806323614FF4805363614FF48043A3610E
:10377000E5614FF40033236265620323A362E562CF
:103780002563124B23603463A6632046FCF70AFFCF
:103790002046FCF7CBFE2A4605213820FCF76EFEBA
:1037A0003820FCF79BFE0EB070BD00BF0038024011
:1037B00000080240000C02400010024000140240C9
:1037C00000180240001C0240C802002010640240A1
:1037D00038B51B4C1B4B23601B4D02232B6007216C
:1037E00069600422AA60E9602B616B61AB61002112
:1037F0006160A160E26010232361402363614FF4A4
:103800008073A361E1614FF4006323624FF480533E
:103810006362A1622046FFF71DFF29462046FFF79D
:1038200054F948B90022094B1A7040F20360FFF7BF
:10383000C3FE064B187838BD0122044B1A70F4E71A
:1038400018030020400100A0AC0200201800002056
:1038500070B4BFF34F8FBFF36F8F1D4B0021C3F8C0
:1038600050125A6942F400325A61BFF34F8FBFF3CE
:103870006F8FC3F88410D3F88060C6F34E3006F023
:1038800007050435C6F3C906B6FA86F404F01F042A
:10389000BFF34F8F0EE0134603FA04F200FA05F16E
:1038A0000A430B49C1F860225A1E002BF3D1431E74
:1038B00010B118463346EFE7BFF34F8F4B6943F41F
:1038C00080334B61BFF34F8FBFF36F8F70BC704776
:1038D00000ED00E000B593B0012301934FF4803375
:1038E0000293022307934FF480020892192209924F
:1038F0004FF4C8720A920B9308230C9301A8FEF7A9
:1039000003FA00B1FEE7FEF7C1F900B1FEE70F23AD
:103910000D9302230E9300230F934FF4A0531093A3
:103920004FF48053119306210DA8FEF721FC00B13E
:10393000FEE713B05DF804FB08B5FFF7E7FD4FF0B5
:1039400040410020FFF75CFBFFF712FD0020FFF76E
:1039500097FB4FF07F40FFF7C9FB64210020FFF782
:1039600095FB08BD38B5FFF773FFFCF74DFDFFF77A
:10397000B1FFFFF7E1FF4FF0FF30FFF78FFB4FF094
:103980007F40FFF797FB002418E0FFF72DFB012590
:1039900007E001230E4A21460020FFF77FFC2C445C
:1039A000A4B2012D0FD1FFF71FFB0A4BDB88C01A11
:1039B00084422CBF002001200028EAD1002CE4D052
:1039C0004FF0FF35EDE7201C18BF0120F4E700BFE2
:1039D000205F00081000002008B5FCF721FDFCF76F
:1039E000A0FD08BD014B1868704700BF1C000020F7
:1039F00010B5431E0A44914200D110BD11F8014B8D
:103A000003F8014FF7E730B5141E05469BB0184682
:103A100005DA8B232B604FF0FF301BB030BD4FF425
:103A20000273ADF80C3014BF04F1FF332346029348
:103A300005934FF6FF7300910491ADF80E300246E6
:103A40001E9B6946284600F075F8431CBCBF8B23BB
:103A50002B60002CE1D0009B00221A70DDE70000F3
:103A600007B5009313460A46014603480068FFF76E
:103A7000CAFF03B05DF804FB1C0000202DE9F047ED
:103A80008E689E4282460C469146984635D88A8971
:103A900012F4906F31D0256809696F1A65690223A5
:103AA00005EB450595FBF3F508F101033B449D4209
:103AB00038BF1D46530531D5294600F081FB064627
:103AC00050B90C23CAF80030A38943F04003A38106
:103AD0004FF0FF30BDE8F0873A462169FFF788FFD5
:103AE000A38923F4906343F08003A3812661656179
:103AF0003E44ED1B2660A5604646464528BF464627
:103B000032464946206800F0F3FAA3689B1BA36085
:103B100023681E4426600020BDE8F0872A4600F096
:103B2000ADFB06460028E1D12169504600F0FAFAC3
:103B3000C7E700002DE9F04F9DB0804603938B89C5
:103B40001C060D4616460FD50B696BB9402100F0D7
:103B500037FB2860286128B90C23C8F800304FF0E3
:103B6000FF30C5E040236B610023099320238DF8CB
:103B7000293030238DF82A304FF0010B37463C4670
:103B800014F8013B002B3CD1B7EB060A0BD053468F
:103B9000324629464046FFF771FF013000F0A3800E
:103BA000099B534409933B78002B00F09C80002331
:103BB0004FF0FF3204930793059206938DF853302C
:103BC0001A9305222178504800F042FA671C049BA2
:103BD000D8B9D90644BF20228DF853201A0744BF14
:103BE0002B228DF8532022782A2A16D0079A0021FA
:103BF0000A20274601343B78303B092B51D9C9B103
:103C000011E0252BC0D02746B9E73F4A801A0BFAAE
:103C100000F0184304903C46D3E7039A111D126844
:103C20000391002A01DB079204E0524243F00203B1
:103C3000079204933B782E2B0ED17B782A2B07F129
:103C4000010132D1039B1A1D1B680392002BB8BFE0
:103C50004FF0FF33023705932C4C3978032220466E
:103C600000F0F6F938B14023001B03FA00F0049B82
:103C7000034304930137397825488DF8281006222C
:103C80007E1C00F0E5F9002835D0224BFBB9039BE0
:103C9000073323F0070308330393099B4B4409932D
:103CA0006CE700FB02320121A3E7002305931846CD
:103CB0000A240F4601313A78303A092A03D9002BF9
:103CC000CAD00590C8E704FB00200123F1E703AB4D
:103CD00000932A46104B04A94046AFF30080B0F190
:103CE000FF3F8146D9D1AB895B063FF538AF0998D4
:103CF0001DB0BDE8F08F03AB00932A46064B04A924
:103D0000404600F081F8EAE7345F00083A5F0008B7
:103D10003E5F0008000000007D3A00082DE9F047F2
:103D200091461F468A680B69DDF820809342B8BF30
:103D30001346C9F8003091F8432006460C4612B1EC
:103D40000133C9F800302368990642BFD9F8003022
:103D50000233C9F80030256815F0060507D104F1D3
:103D6000190AE368D9F800209B1A9D4229DB94F8D0
:103D700043302268003318BF012392062ED404F189
:103D8000430239463046C047013021D02368E568F8
:103D9000D9F8002003F00603042B08BFAD1AA3686E
:103DA00022690CBF25EAE57500259342C4BF9B1A22
:103DB000ED184FF000091A344D451BD10020BDE825
:103DC000F0870123524639463046C047013003D1BF
:103DD0004FF0FF30BDE8F0870135C2E7E1185A1C0B
:103DE000302081F84300224494F8451082F84310B3
:103DF0000233C4E70123224639463046C04701302A
:103E0000E6D009F10109D7E72DE9F04317460A7E0C
:103E100085B06E2A984606460C460C9B01F1430E6F
:103E200000F0BC801AD8632A2ED00AD8002A00F0ED
:103E3000C880582A00F08A8004F1420584F84220A4
:103E40002AE0642A01D0692AF6D121681A6811F0A3
:103E5000800F23D0111D1960136827E0732A00F02A
:103E6000B48008D86F2A2AD0702AE5D10A6842F0B7
:103E700020020A6003E0752A21D0782ADCD178225A
:103E800084F845206E4964E01A6801F14205111D6D
:103E90001960136884F842300123A3E011F0400F49
:103EA00002F104011960D7D0B2F90030002B03DA17
:103EB0002D225B4284F8432062490A2217E02068E1
:103EC000196810F0800F03D0081D18600B6806E019
:103ED00010F0400F01F104001860F7D00B88594929
:103EE0006F2A14BF0A220822002084F84300656864
:103EF000A560002DC0F29C80206820F004002060A6
:103F0000002B3FD1002D40F095807546082A0BD13B
:103F10002368DA0708D5236962689A42DEBF302336
:103F200005F8013C05F1FF35AEEB05032361CDF843
:103F300000803B4603AA21463046FFF7EFFE0130E2
:103F400055D14FF0FF3005B0BDE8F08381F8452032
:103F50003C492268186812F0800F00F104051D60CA
:103F600001D0036802E05506FBD50388D00744BFA3
:103F700042F0200222601BB9226822F02002226057
:103F80001022B1E77546B3FBF2F002FB1033CB5CB5
:103F900005F8013D03460028F5D1B7E708681A681F
:103FA000496910F0800F04D0101D18601368196063
:103FB00007E010F0400F02F1040018601368F6D01B
:103FC0001980002323617546B1E71A68111D196035
:103FD000156862680021284600F03AF808B1401BD5
:103FE000606063682361002384F843309FE723699E
:103FF0002A4639463046C0470130A2D023689B0785
:1040000007D5002504F11909E368039A9B1A9D421C
:1040100005DBE068039B9842B8BF184693E701238D
:104020004A4639463046C04701308AD00135EBE771
:10403000002BA7D10B7884F8423004F1420565E7E4
:10404000565F0008455F0008000000000000000007
:1040500001F0FF01102A2BDB10F0070F08D010F839
:10406000013B013A8B422DD010F0070F42B3F6D13D
:10407000F0B441EA012141EA014122F007047FF056
:1040800000070023F0E80256083C85EA010586EAAD
:10409000010685FA47F5A3FA87F586FA47F6A5FAE9
:1040A00087F68EB9EED1F0BC01F0FF0102F00702F5
:1040B00032B110F8013B013A83EA010313B1F8D1A0
:1040C0000020704701387047002D06BF3546033881
:1040D000073815F0010F07D1013015F4807F02BFBA
:1040E000013015F4C03F0130F0BC0138704700BF0B
:1040F000884210B501EB020303D8421E99420CD14D
:1041000010BD9842F9D28118D21AD34200D110BD05
:1041100013F8014D01F8014DF7E711F8014B02F8D2
:10412000014FEBE738B50546002945D051F8043C6E
:104130000C1F002BB8BFE41800F0D6F81F4A136814
:10414000104633B9636014602846BDE8384000F07B
:10415000CCB8A3420CD921686218934204BF1A68F4
:104160005B68636004BF521822600460ECE713468A
:104170005A680AB1A242FAD919685818A0420BD15C
:1041800020680144581882421960DDD110685268D5
:104190005A6001441960D7E702D90C232B60D3E79A
:1041A000206821188A4204BF11685268626004BF07
:1041B000091821605C60C7E738BD00BF4C030020D0
:1041C00070B5CD1C25F0030508350C2D38BF0C2526
:1041D000002D064601DBA94203D90C2333600020E1
:1041E00070BD00F081F8234A1468214691B9224C31
:1041F00023681BB9304600F067F820602946304636
:1042000000F062F8431C26D10C233360304600F0E6
:104210006CF8E4E70B685B1B1AD40B2B0FD90B600F
:10422000CD50CC18304600F060F804F10B00231D8F
:1042300020F00700C31A1BD05A42E25070BD8C42D6
:104240000DBF63684B686360136018BF0C46E9E7F5
:104250000C464968CAE7C41C24F00304A04205D0F8
:10426000211A304600F030F80130CDD02560D9E772
:1042700070BD00BF4C03002050030020F8B5074676
:1042800014460E4621B91146BDE8F840FFF798BF25
:1042900022B9FFF747FF25462846F8BD00F026F86B
:1042A00084420FD921463846FFF78AFF0546002889
:1042B000F2D031462246FFF79BFB31463846FFF7E6
:1042C00031FFE9E73546E7E738B5064C00230546F8
:1042D00008462360FEF702FD431C02D1236803B1A8
:1042E0002B6038BD540300207047704751F8040C10
:1042F0000028A0F10400BCBF0B58C0187047000094
:10430000000000000102030401020304060708097B
:10431000537461636B206672616D653A0A00000038
:10432000205230203D2020253038580A000000005F
:10433000205231203D2020253038580A000000004E
:10434000205232203D2020253038580A000000003D
:10435000205233203D2020253038580A000000002C
:1043600020523132203D20253038580A000000000C
:10437000204C52203D2020253038580A00000000F3
:10438000205043203D2020253038580A00000000EE
:1043900020505352203D20253038580A000000009C
:1043A0004653522F4641523A0A00000020434653DA
:1043B00052203D2020253038580A0000204846531E
:1043C00052203D2020253038580A00002044465312
:1043D00052203D2020253038580A00002041465305
:1043E00052203D2020253038580A0000204D4D46EF
:1043F0004152203D20253038580A000020424641D5
:1044000052203D2020253038580A00004D69736342
:104410000A000000204C522F4558435F5245545526
:10442000524E3D20253038580A0000005B4861722A
:10443000644661756C745D0A000000005B42757330
:104440004661756C745D0A005B5573616765466112
:10445000756C745D0A0000000000000000000000A0
:104460000102030406070809000000000000000024
:10447000000000000000000000000000000000003C
:10448000000000000000000000000000000000002C
:10449000000000000000000000000000000000001C
:1044A000000000000000000000000000000000000C
:1044B0000000000000000380000380000380000370
:1044C00080000380000380000380000380000380DD
:1044D0000001000001000000000000000003800057
:1044E0000380000000000000000000000000000049
:1044F00000000000000000000000000000000000BC
:10450000000E70000E70000E7000042000042000E9
:104510000420000420000000000000000000000053
:10452000000000000000000000000000000000008B
:10453000000000000000000000000000000000007B
:104540000000000000000660000660000660000633
:1045500060000660003FF8003FF8000660000CC0F5
:10456000003FF8003FF8000CC0000CC0000CC00079
:104570000CC0000CC00000000000000000000000A3
:104580000000000000000000000000018000018029
:104590000007B0000FF0001870001870001C000039
:1045A0000F800007E00000F0001830001C30001CF5
:1045B00070001FE0001BC00001800001800001802E
:1045C000000180000000000000000000000000006A
:1045D0000000000000000780000FC0001CE0001871
:1045E00060001860001CE0000FF80007E0001FF0FA
:1045F0000007380006180006180007380003F0000E
:1046000001E00000000000000000000000000000C9
:10461000000000000000000000000000000000009A
:104620000000000003F00007F0000C60000C000028
:104630000C00000600000700000F9C001DFC001885
:10464000F0001870000FFC0007DC00000000000004
:10465000000000000000000000000000000000005A
:104660000000000000000000000380000380000341
:1046700080000100000100000100000100000000B6
:10468000000000000000000000000000000000002A
:10469000000000000000000000000000000000001A
:1046A00000000000000000000000000000000018F2
:1046B0000000380000700000F00000E00000E000A2
:1046C00001C00001C00001C00001C00001C0000124
:1046D000C00000E00000E000007000007000003842
:1046E00000001800000000000000000000000000B2
:1046F0000000000000001800001C00000E00000E6A
:104700000000070000070000038000038000038012
:104710000003800003800003800007000007000002
:104720000F00000E00001C00001800000000000038
:1047300000000000000000000000000000000180F8
:10474000000180000180001DB8001FF80007E00094
:1047500003C00003C0000660000660000000000007
:104760000000000000000000000000000000000049
:104770000000000000000000000000000000000039
:1047800000000000000000000000000001800001A7
:1047900080000180000180000180003FFC003FFCA0
:1047A0000001800001800001800001800001800084
:1047B00000000000000000000000000000000000F9
:1047C00000000000000000000000000000000000E9
:1047D00000000000000000000000000000000000D9
:1047E00000000000000000000000000000000000C9
:1047F000000000E00000C00001C000018000018056
:1048000000030000030000000000000000000000A2
:104810000000000000000000000000000000000098
:1048200000000000000000000000001FF8001FF85A
:104830000000000000000000000000000000000078
:104840000000000000000000000000000000000068
:104850000000000000000000000000000000000058
:104860000000000000000000000000000000000048
:104870000000000000000000000000000000000038
:10488000000003C00003C00003C0000000000000DF
:104890000000000000000000000000000000000018
:1048A0000018000018000038000030000070000000
:1048B000600000600000C00000C0000180000180B6
:1048C000000300000300000600000600000E0000C8
:1048D0000C00001C00001800001800000000000080
:1048E000000000000000000000000000000003C005
:1048F0000007E0000C30000C3000181800181800F9
:104900001818001818001818001818001818000CAB
:1049100030000C300007E00003C000000000000081
:104920000000000000000000000000000000000087
:104930000000000000000080000780001F80001DB4
:104940008000018000018000018000018000018062
:10495000000180000180000180000180001FF8003C
:104960001FF8000000000000000000000000000030
:10497000000000000000000000000000000007C070
:10498000001FF00038300030180030180000180008
:1049900000300000600001C0000380000600000C31
:1049A00000001800003FF8003FF800000000000081
:1049B00000000000000000000000000000000000F7
:1049C00000000000000003C0000FE0000C700000B9
:1049D000300000300000600003C00003E000007001
:1049E000000018000018000018001838001FF00020
:1049F0000FC00000000000000000000000000000E8
:104A0000000000000000000000000000000000E0C6
:104A10000001E00001E000036000066000066000A5
:104A20000C60000C60001860003060003FF8003F30
:104A3000F80000600003F80003F800000000000028
:104A40000000000000000000000000000000000066
:104A50000000000000001FF0001FF0001800001808
:104A600000001800001BC0001FF0001C30000018E0
:104A7000000018000018000018003030003FF0005F
:104A80000FC0000000000000000000000000000057
:104A9000000000000000000000000000000000F81E
:104AA0000003F8000700000E00000C0000180000D2
:104AB0001BC0001FF0001C30001818001818001848
:104AC00018000C38000FF00003E0000000000000A8
:104AD00000000000000000000000000000000000D6
:104AE0000000000000001FF8001FF8001818001850
:104AF00038000030000030000070000060000060EE
:104B00000000E00000C00000C00001C00001800003
:104B10000180000000000000000000000000000014
:104B2000000000000000000000000000000007E09E
:104B3000000FF0001C38001818001818000C300086
:104B400007E00007E0000C300018180018180018E3
:104B500018001C38000FF00007E000000000000003
:104B60000000000000000000000000000000000045
:104B700000000000000007C0000FF0001C3000180B
:104B800018001818001818000C38000FF80003D887
:104B90000000180000300000700000E0001FC0009E
:104BA0001F000000000000000000000000000000E6
:104BB00000000000000000000000000000000000F5
:104BC0000000000000000000000003C00003C0005F
:104BD00003C0000000000000000000000000000012
:104BE000000003C00003C00003C00000000000007C
:104BF00000000000000000000000000000000000B5
:104C000000000000000000000000000000000000A4
:104C1000000000F00000F00000F0000000000000C4
:104C20000000000000000000E00001C00001800062
:104C300001800003000002000000000000000000EE
:104C40000000000000000000000000000000000064
:104C500000000000001C00003C0000F00003C00049
:104C60000F00003C0000F000003C00000F000003BB
:104C7000C00000F000003C00001C0000000000002C
:104C80000000000000000000000000000000000024
:104C90000000000000000000000000000000000014
:104CA00000000000007FFC007FFC0000000000000E
:104CB000007FFC007FFC00000000000000000000FE
:104CC00000000000000000000000000000000000E4
:104CD00000000000000000000000000000000000D4
:104CE000000000007000007800001E000007800037
:104CF00001E000007800001E0000780001E00007DD
:104D000080001E000078000070000000000000001D
:104D10000000000000000000000000000000000093
:104D200000000000000000000007C0000FE00018B5
:104D3000700018300018300000700000E00003C060
:104D400000038000030000000000000000070000D6
:104D5000070000000000000000000000000000004C
:104D6000000000000000000000000000000003E060
:104D70000007F0000E38000C180018780018F80032
:104D800019D80019980019980019980018F80018F7
:104D900078001800000C00000E180007F80003E06F
:104DA0000000000000000000000000000000000003
:104DB0000000000000000000001F80001FC0000174
:104DC000C0000360000360000630000630000C30B5
:104DD000000FF8001FF800180C00300C00FC7F00DA
:104DE000FC7F000000000000000000000000000048
:104DF00000000000000000000000000000000000B3
:104E0000007FE0007FF00018380018180018180024
:104E10001838001FF0001FF800181C00180C0018AC
:104E20000C00180C007FF8007FF00000000000006C
:104E30000000000000000000000000000000000072
:104E400000000000000000000003EC000FFC001C4C
:104E50001C00180C00300C00300000300000300046
:104E600000300000300000180C001C1C000FF8007F
:104E700003F000000000000000000000000000003F
:104E80000000000000000000000000000000000022
:104E9000007FC0007FF000183800181800180C00C0
:104EA000180C00180C00180C00180C00180C001836
:104EB00018001838007FF0007FE0000000000000BC
:104EC00000000000000000000000000000000000E2
:104ED0000000000000000000007FF8007FF80018CC
:104EE00018001818001998001980001F80001F80F2
:104EF000001980001998001818001818007FF80091
:104F00007FF800000000000000000000000000002A
:104F10000000000000000000000000000000000091
:104F2000003FFC003FFC000C0C000C0C000CCC0003
:104F30000CC0000FC0000FC0000CC0000CC0000C63
:104F400000000C00003FC0003FC000000000000057
:104F50000000000000000000000000000000000051
:104F600000000000000000000003EC000FFC001C2B
:104F70001C00180C00300C0030000030000030FE27
:104F80000030FE00300C00380C001C1C000FFC0030
:104F900003F000000000000000000000000000001E
:104FA0000000000000000000000000000000000001
:104FB000007E7E007E7E0018180018180018180069
:104FC0001818001FF8001FF800181800181800180B
:104FD00018001818007E7E007E7E00000000000091
:104FE00000000000000000000000000000000000C1
:104FF0000000000000000000001FF8001FF8000182
:10500000800001800001800001800001800001809B
:10501000000180000180000180000180001FF80075
:105020001FF8000000000000000000000000000069
:105030000000000000000000000000000000000070
:105040000007FE0007FE00003000003000003000C6
:1050500000300000300030300030300030300030A0
:1050600030003060003FE0000F80000000000000D2
:105070000000000000000000000000000000000030
:105080000000000000000000007F3E007F3E00188E
:10509000300018600018C0001980001B80001FC07D
:1050A000001CE0001870001830001838007F1F0046
:1050B0007F1F000000000000000000000000000052
:1050C00000000000000000000000000000000000E0
:1050D000007F80007F80000C00000C00000C0000AE
:1050E0000C00000C00000C00000C0C000C0C000C60
:1050F0000C000C0C007FFC007FFC00000000000096
:10510000000000000000000000000000000000009F
:10511000000000000000000000F00F00F81F003841
:105120001C003C3C003C3C00366C00366C0033CC30
:105130000033CC00318C00300C00300C00FE7F00BE
:10514000FE7F0000000000000000000000000000E2
:10515000000000000000000000000000000000004F
:105160000078FE0078FE001C18001E18001F1800B2
:105170001B18001B980019D80018D80018F8001840
:1051800078001838007F18007F1800000000000029
:10519000000000000000000000000000000000000F
:1051A00000000000000000000003C0000FF0001C21
:1051B0003800181800381C00300C00300C00300C7F
:1051C00000300C00381C001818001C38000FF000CC
:1051D00003C000000000000000000000000000000C
:1051E00000000000000000000000000000000000BF
:1051F000003FF0003FF8000C1C000C0C000C0C00F1
:105200000C0C000C18000FF8000FE0000C00000C54
:1052100000000C00003FC0003FC000000000000084
:10522000000000000000000000000000000000007E
:1052300000000000000000000003C0000FF0001C90
:105240003800181800381C00300C00300C00300CEE
:1052500000300C00381C001818001C38000FF0003B
:1052600007C00007CC000FFC000C38000000000055
:10527000000000000000000000000000000000002E
:10528000007FE0007FF000183800181800181800A0
:105290001838001FF0001FC00018E0001870001838
:1052A00030001838007F1E007F0E00000000000054
:1052B00000000000000000000000000000000000EE
:1052C00000000000000000000007D8000FF8001CDC
:1052D00038001818001818001E00000FC00003F056
:1052E000000078001818001818001C38001FF00083
:1052F0001BE00000000000000000000000000000B3
:10530000000000000000000000000000000000009D
:10531000003FFC003FFC00318C00318C00318C00E0
:10532000318C0001800001800001800001800001BB
:1053300080000180000FF0000FF00000000000006E
:10534000000000000000000000000000000000005D
:105350000000000000000000007E7E007E7E00183D
:105360001800181800181800181800181800181835
:10537000001818001818001818000C30000FF00062
:1053800003C000000000000000000000000000005A
:10539000000000000000000000000000000000000D
:1053A000007F7F007F7F00180C000C18000C180095
:1053B0000C18000630000630000360000360000394
:1053C000600001C00001C00000800000000000007B
:1053D00000000000000000000000000000000000CD
:1053E000000000000000000000FE3F80FE3F803013
:1053F000060030060030860019CC0019CC001B6C6A
:10540000001B6C001E7C000E38000E38000C1800CB
:105410000C18000000000000000000000000000068
:10542000000000000000000000000000000000007C
:10543000007E7E007E7E001818000C3000066000A2
:1054400003C00001800001800003C0000660000C62
:1054500030001818007E7E007E7E000000000000F4
:10546000000000000000000000000000000000003C
:105470000000000000000000007C7E007C7E001820
:1054800018000C300006600006600003C0000180B8
:10549000000180000180000180000180000FF00009
:1054A0000FF00000000000000000000000000000FD
:1054B00000000000000000000000000000000000EC
:1054C000001FF8001FF800181800183000186000BE
:1054D00018C0000180000300000618000C18001816
:1054E00018003018003FF8003FF8000000000000EE
:1054F00000000000000000000000000000000000AC
:1055000000000000000001F00001F0000180000137
:105510008000018000018000018000018000018086
:1055200000018000018000018000018000018000F6
:1055300001800001800001F00001F0000000000087
:1055400000000000000000001800001800001C000F
:10555000000C00000E000006000006000003000022
:1055600003000001800001800000C00000C00000B6
:10557000600000600000700000300000380000187B
:105580000000180000000000000000000000000003
:105590000000000000000F80000F8000018000016B
:1055A00080000180000180000180000180000180F6
:1055B0000001800001800001800001800001800066
:1055C0000180000180000F80000F800000000000BB
:1055D000000000000000000000000000800001C08A
:1055E0000003E0000770000630000C1800180C00E3
:1055F0001004000000000000000000000000000097
:10560000000000000000000000000000000000009A
:10561000000000000000000000000000000000008A
:10562000000000000000000000000000000000007A
:10563000000000000000000000000000000000006A
:10564000000000000000000000000000000000005A
:10565000000000000000000000000000000000004A
:105660000000FFFF00FFFF000000000300000380B8
:105670000000E000006000000000000000000000EA
:10568000000000000000000000000000000000001A
:10569000000000000000000000000000000000000A
:1056A00000000000000000000000000000000000FA
:1056B00000000000000000000000000000000000EA
:1056C00000000FC0001FE00000300000300007F0B5
:1056D000001FF0003830003030003070001FFC0038
:1056E0000FBC0000000000000000000000000000EF
:1056F0000000000000000000000000000000780032
:10570000007800001800001800001BE0001FF800DF
:105710001C1800180C00180C00180C00180C0018AD
:105720000C001C18007FF8007BE000000000000067
:105730000000000000000000000000000000000069
:105740000000000000000000000000000000000059
:10575000000003EC000FFC001C1C00380C00300C97
:1057600000300000300000380C001C1C000FF80056
:1057700003F0000000000000000000000000000036
:1057800000000000000000000000000000000078A1
:105790000000780000180000180007D8001FF8006B
:1057A0001838003018003018003018003018003059
:1057B00018001838001FFE0007DE0000000000007F
:1057C00000000000000000000000000000000000D9
:1057D00000000000000000000000000000000000C9
:1057E000000007E0001FF800181800300C003FFC14
:1057F000003FFC00300000300000180C001FFC00CF
:1058000007F00000000000000000000000000000A1
:10581000000000000000000000000000000001FC8B
:105820000003FC000600000600003FF8003FF800FF
:105830000600000600000600000600000600000644
:1058400000000600003FF0003FF0000000000000F4
:105850000000000000000000000000000000000048
:105860000000000000000000000000000000000038
:10587000000007DE001FFE00183800301800301846
:10588000003018003018003018001838001FF800D9
:1058900007D8000018000018000038000FF0000FB3
:1058A000C0000000000000000000000000007800C0
:1058B000007800001800001800001BE0001FF00036
:1058C0001C380018180018180018180018180018AC
:1058D00018001818007E7E007E7E00000000000088
:1058E00000000000000000000000000000000000B8
:1058F00000000000000001800001800000000000A6
:1059000000001F80001F80000180000180000180D6
:10591000000180000180000180000180003FFC0048
:105920003FFC00000000000000000000000000003C
:10593000000000000000000000000000000000C0A7
:105940000000C0000000000000001FF0001FF00079
:105950000030000030000030000030000030000057
:105960003000003000003000003000003000003017
:10597000000070001FE0001F800000000000000019
:105980000000000000003C00003C00000C00000C87
:1059900000000CF8000CF8000CC0000D80000F8017
:1059A000000F00000F80000DC0000CE0003C7C00E8
:1059B0003C7C00000000000000000000000000002F
:1059C00000000000000000000000000000001F8038
:1059D000001F800001800001800001800001800024
:1059E0000180000180000180000180000180000131
:1059F00080000180003FFC003FFC00000000000030
:105A00000000000000000000000000000000000096
:105A10000000000000000000000000000000000086
:105A20000000F77800FFFC0039CC00318C00318C8D
:105A300000318C00318C00318C00318C00FDEF0086
:105A4000FDEF00000000000000000000000000006A
:105A50000000000000000000000000000000000046
:105A6000000000000000000000007BE0007FF0006C
:105A70001C380018180018180018180018180018FA
:105A800018001818007E7E007E7E000000000000D6
:105A90000000000000000000000000000000000006
:105AA00000000000000000000000000000000000F6
:105AB000000003C0000FF0001C3800381C00300C40
:105AC00000300C00300C00381C001C38000FF000B7
:105AD00003C0000000000000000000000000000003
